:100000000C9434000C9451000C9451000C94510049
:100010000C9451000C9451000C9451000C9451001C
:100020000C9451000C9451000C9451000C9451000C
:100030000C9451000C94DF010C9451000C9451006D
:100040000C9451000C9451000C9453000C948100BA
:100050000C9451000C94F4010C9451000C94510038
:100060000C9451000C94510011241FBECFEFD8E026
:10007000DEBFCDBF11E0A0E0B1E0E0E1F6E002C0FC
:1000800005900D92A033B107D9F721E0A0E3B1E0CC
:1000900001C01D92A537B207E1F70E948B010C94B5
:1000A00006030C9400001F920F920FB60F921124BA
:1000B0002F938F939F93EF93FF938091C000209194
:1000C000C6008C71E0913201EF5FEF7190913101C8
:1000D000E91739F0E0933201F0E0EB5CFE4F20834A
:1000E00001C082E090913001892B80933001FF9113
:1000F000EF919F918F912F910F900FBE0F901F90B6
:1001000018951F920F920FB60F9211248F939F9301
:10011000EF93FF939091340180913301981769F028
:10012000E0913301EF5FEF71E0933301F0E0EB5AC0
:10013000FE4F80818093C60005C0E1ECF0E0808135
:100140008F7D8083FF91EF919F918F910F900FBED4
:100150000F901F9018951092340110923301109255
:1001600032011092310199231CF422E02093C00047
:1001700090789093C5008093C40088E98093C10073
:1001800086E08093C2000895209134012F5F2F7183
:10019000909133012917E1F3E22FF0E0EB5AFE4F83
:1001A000808320933401E1ECF0E0808180628083E1
:1001B0000895CF93DF93EC018881882331F0219655
:1001C0000E94C40089918111FBCFDF91CF910895E6
:1001D000299A85E08A95F1F7000029980895CF9330
:1001E000C82F662311F0289A01C02898549A559A6E
:1001F000569A579A5F985E985D985C98CC230CF459
:100200005F9AC6FD5E9AC5FD5D9AC4FD5C9A0E9428
:10021000E8005F985E985D985C98C3FD5F9AC2FDA8
:100220005E9AC1FD5D9AC0FD5C9A0E94E8005C9AEE
:100230005D9A5E9A5F9A8FE79CE00197F1F700C0A4
:100240000000CF91089560E00E94EF0008956111D1
:1002500004C080580E942301089580540E94230105
:10026000089581E00E942301089561E00E94EF005B
:100270000895CF93DF93EC012196FC0180818823C0
:1002800029F00E94350189918111FBCFDF91CF9137
:100290000895CF93C82F209A559A219A549A559A27
:1002A000569A579A8FEF99EF0197F1F700C0000027
:1002B0005D9A5C9A0E94E8008FE19EE40197F1F755
:1002C00000C000000E94E8008FEF90E00197F1F776
:1002D00000C000000E94E8008FEF90E00197F1F766
:1002E00000C000005C980E94E8008FEF90E001974A
:1002F000F1F700C0000088E20E94230188E00E941C
:1003000023010E94310186E00E9423018C2F0E946C
:100310002301CF9108958CE00E94490160E081E0C3
:100320000E94270180E091E00E94390161E083E0B2
:100330000E94270187E091E00E94390160E088E097
:100340000E9427018CE091E00E94390160E08DE07D
:100350000E9427018EE091E00E94390161E088E06F
:100360000E94270180E191E00E943901ECE7F0E072
:1003700080818064808380818F7780838081807F8B
:100380008083EAE7F0E080818068808380818860F4
:100390008083808187608083E1E8F0E080818B7FCB
:1003A0008083808183608083EFE6F0E080818160DC
:1003B000808387E690E00E94AB007894FFCF1F9285
:1003C0000F920FB60F9211248F93EF93FF93EAE7EA
:1003D000F0E0808180648083FF91EF918F910F9096
:1003E0000FBE0F901F9018951F920F920FB60F928D
:1003F00011240F931F932F933F934F935F936F930A
:100400007F938F939F93AF93BF93EF93FF93CF937C
:10041000DF9300D000D0CDB7DEB780E390E39A83BE
:1004200089839C838B8308E710E0F80180819181A8
:100430004AE0BE016F5F7F4F0E94D10260E088E01A
:100440000E94270183E191E00E94390160E088E089
:100450000E942701CE0101960E943901CE0101962A
:100460000E94D90086E191E00E94D900F801008144
:10047000118140E1BE016F5F7F4FC8010E94D10230
:1004800060E08DE00E94270184E191E00E94390143
:1004900060E08DE00E942701CE0101960E943901A3
:1004A0000F3FF3E01F0789F461E088E00E94270115
:1004B00082E191E00E94390161E088E00E94270119
:1004C00088E191E00E9439012AC0C8018156910952
:1004D000049780F461E088E00E94270182E191E0C6
:1004E0000E94390161E088E00E9427018DE191E0DE
:1004F0000E943901C80188599140049780F461E055
:1005000088E00E94270182E191E00E94390161E0C8
:1005100088E00E94270180E291E00E9439010F3FAC
:100520001105A0F00330114018F561E088E00E9449
:10053000270182E191E00E94390161E088E00E9498
:10054000270185E291E00E94390112C0012B81F45C
:1005500061E088E00E94270182E191E00E94390178
:1005600061E088E00E9427018AE291E00E9439015F
:100570000F900F900F900F90DF91CF91FF91EF911F
:10058000BF91AF919F918F917F916F915F914F91AB
:100590003F912F911F910F910F900FBE0F901F90C1
:1005A0001895BB274A3031F4992322F4BDE2909587
:1005B00081959F4F0C94DD02BB27FB015527AA278D
:1005C000880F991FAA1FA41710F0A41B83955051E0
:1005D000B9F7A05DAA3308F0A95DA193009779F758
:1005E000B111B1931192CB010C94F602DC01FC0124
:1005F000672F71917723E1F7329704C07C916D9357
:1006000070836291AE17BF07C8F30895F894FFCFC7
:1006100076616C75653A006B65793A00610062003D
:1006200063002020202020006E6F6E650075700032
:100630006C65667400646F776E0072696768740039
:00000001FF
