S00E000074696D6572732E7372656382
S11300000C9434000C943E000C943E000C943E007E
S11300100C943E000C943E000C943E000C943E0064
S11300200C943E000C943E000C943E000C943E0054
S11300300C943E000C94B0000C943E000C943E00D2
S11300400C943E000C943E000C943E000C943E0034
S11300500C943E000C943E000C943E000C943E0024
S11300600C943E000C943E0011241FBECFEFD8E048
S1130070DEBFCDBF0E947C000C94D7000C9400001E
S1130080FC01408121E030E002C0220F331F6A9559
S1130090E2F7242B20830895FC01908121E030E0D5
S11300A002C0220F331F6A95E2F72095292320838B
S11300B00895FC01908121E030E002C0220F331F3B
S11300C06A95E2F72095292320830895FC01408155
S11300D021E030E002C0220F331F6A95E2F72427A3
S11300E020830895FC01808190E002C09595879556
S11300F06A95E2F78170089565E084E290E00E94D9
S1130100400065E085E290E00E94590063E087E2E8
S113011090E00E944C00E1E8F0E080818B7F8083D6
S1130120808183608083EFE6F0E08081816080835A
S11301307894C1E8D0E063E086E290E00E94720027
S1130140811107C088818A7F88838881826088833F
S1130150F2CF88818B7F8883888183608883EBCF0B
S11301601F920F920FB60F9211242F933F934F9328
S11301705F936F937F938F939F93AF93BF93EF930B
S1130180FF9365E085E290E00E946600FF91EF91A5
S1130190BF91AF919F918F917F916F915F914F919B
S11301A03F912F910F900FBE0F901F901895F894C8
S10501B0FFCF7B
S9030000FC
